:020000040800F2
:100000000030002071350008B5340008B73400080E
:10001000B9340008BB340008BD34000800000000FB
:10002000000000000000000000000000BF340008D5
:10003000C134000800000000C3340008C5340008C3
:10004000C1350008C1350008C1350008C1350008B8
:10005000C1350008C1350008C1350008C1350008A8
:10006000C1350008C1350008C1350008C135000898
:10007000C1350008C1350008C1350008C135000888
:10008000C1350008C1350008C1350008C135000878
:10009000C1350008C1350008C1350008C135000868
:1000A000C1350008C1350008C1350008C135000858
:1000B000C1350008C135000800000000C135000846
:1000C000C13500080000000000000000C135000834
:1000D00000000000C1350008C1350008C135000826
:1000E000C1350008C1350008000000000000000014
:1000F0000000000000000000000000000000000000
:1001000000000000000000000000000000000000EF
:100110000000000000000000C1350008C1350008E3
:1001200000000000000000000000000000000000CF
:1001300000000000000000000000000000000000BF
:10014000C1350008C13500080000000000000000B3
:10015000000000000000000000000000000000009F
:10016000000000000000000000000000000000008F
:10017000000000000000000000000000000000007F
:0801800000000000C135000879
:1001900010B5054C237833B9044B13B10448AFF3C1
:1001A00000800123237010BD7000002000000000BB
:1001B000843F000808B5034B1BB103490348AFF364
:1001C000008008BD0000000074000020843F00088B
:1001D00081F0004102E000BF83F0004330B54FEAF8
:1001E00041044FEA430594EA050F08BF90EA020F65
:1001F0001FBF54EA000C55EA020C7FEA645C7FEAF8
:10020000655C00F0E2804FEA5454D4EB5555B8BF1A
:100210006D420CDD2C4480EA020281EA030382EA8B
:10022000000083EA010180EA020281EA0303362D1D
:1002300088BF30BD11F0004F4FEA01314FF4801CF0
:100240004CEA113102D0404261EB410113F0004F02
:100250004FEA03334CEA133302D0524263EB4303B9
:1002600094EA050F00F0A780A4F10104D5F1200E57
:100270000DDB02FA0EFC22FA05F2801841F10001B2
:1002800003FA0EF2801843FA05F359410EE0A5F186
:1002900020050EF1200E012A03FA0EFC28BF4CF0B7
:1002A000020C43FA05F3C01851EBE37101F000456D
:1002B00007D54FF0000EDCF1000C7EEB00006EEB7A
:1002C0000101B1F5801F1BD3B1F5001F0CD3490804
:1002D0005FEA30004FEA3C0C04F101044FEA44525B
:1002E00012F5800F80F09A80BCF1004F08BF5FEAE2
:1002F000500C50F1000041EB045141EA050130BDC2
:100300005FEA4C0C404141EB010111F4801FA4F164
:100310000104E9D191F0000F04BF01460020B1FAB9
:1003200081F308BF2033A3F10B03B3F120020CDAF1
:100330000C3208DD02F1140CC2F10C0201FA0CF0CF
:1003400021FA02F10CE002F11402D8BFC2F1200C34
:1003500001FA02F120FA0CFCDCBF41EA0C019040EA
:10036000E41AA2BF01EB0451294330BD6FEA040433
:100370001F3C1CDA0C340EDC04F11404C4F120021E
:1003800020FA04F001FA02F340EA030021FA04F330
:1003900045EA030130BDC4F10C04C4F1200220FA87
:1003A00002F001FA04F340EA0300294630BD21FAC5
:1003B00004F0294630BD94F0000F83F4801306BF8B
:1003C00081F480110134013D4EE77FEA645C18BF7F
:1003D0007FEA655C29D094EA050F08BF90EA020F16
:1003E00005D054EA000C04BF1946104630BD91EA0E
:1003F000030F1EBF0021002030BD5FEA545C05D111
:100400004000494128BF41F0004130BD14F580044F
:100410003CBF01F5801130BD01F0004545F0FE41C3
:1004200041F470014FF0000030BD7FEA645C1ABFF8
:10043000194610467FEA655C1CBF0B46024650EA2F
:10044000013406BF52EA033591EA030F41F400215B
:1004500030BD00BF90F0000F04BF0021704730B5E1
:100460004FF4806404F132044FF000054FF00001B6
:1004700050E700BF90F0000F04BF0021704730B577
:100480004FF4806404F1320410F0004548BF40424C
:100490004FF000013EE700BF42004FEAE2014FEAA1
:1004A00031014FEA02701FBF12F07F4393F07F4F7C
:1004B00081F06051704732F07F4208BF704793F07F
:1004C0007F4F04BF41F40021704730B54FF4607492
:1004D00001F0004521F000411CE700BF50EA010295
:1004E00008BF704730B54FF000050AE050EA01023E
:1004F00008BF704730B511F0004502D5404261EBAE
:1005000041014FF4806404F132045FEA915C3FF4EE
:10051000D8AE4FF003025FEADC0C18BF03325FEA8B
:10052000DC0C18BF033202EBDC02C2F1200300FA3C
:1005300003FC20FA02F001FA03FE40EA0E0021FA61
:1005400002F11444BDE600BF4FF0FF3C06E000BFDF
:100550004FF0010C02E000BF4FF0010C4DF804CD4C
:100560004FEA410C7FEA6C5C4FEA430C18BF7FEA0C
:100570006C5C1BD001B050EA410C0CBF52EA430C3A
:1005800091EA030F02BF90EA020F0020704710F1BA
:10059000000F91EA030F58BF994208BF90422CBF49
:1005A000D8176FEAE37040F0010070474FEA410C42
:1005B0007FEA6C5C02D150EA013C07D14FEA430C60
:1005C0007FEA6C5CD6D152EA033CD3D05DF8040BD1
:1005D000704700BF8446104662468C461946634603
:1005E00000E000BF01B5FFF7B7FF002848BF10F1DA
:1005F000000F01BD4DF808EDFFF7F4FF0CBF01201F
:1006000000205DF808FB00BF4DF808EDFFF7EAFF9A
:1006100034BF012000205DF808FB00BF4DF808ED55
:10062000FFF7E0FF94BF012000205DF808FB00BF4A
:100630004DF808EDFFF7CEFF94BF012000205DF8D4
:1006400008FB00BF4DF808EDFFF7C4FF34BF0120E1
:1006500000205DF808FB00BF4FEA4102B2F1E04321
:1006600024BFB3F5001CDCF1FE5C0DD901F0004C99
:100670004FEAC0024CEA5070B2F1004F40EB8300E9
:1006800008BF20F00100704711F0804F21D113F115
:100690003872BCBF01F00040704741F480114FEA4E
:1006A0005252C2F11802C2F1200C10FA0CF320FAD7
:1006B00002F018BF40F001004FEAC1234FEAD323F4
:1006C00003FA0CFC40EA0C0023FA02F34FEA43035E
:1006D000CCE77FEA625307D150EA01331EBF4FF0E7
:1006E000FE4040F44000704701F0004040F0FE4002
:1006F00040F40000704700BF034613F8012B002AA6
:10070000FBD1181A013870470000000000000000FB
:1007100001F0FF01102A2BDB10F0070F08D010F8B2
:10072000013B013A8B422DD010F0070F42B3F6D1B6
:10073000F0B441EA012141EA014122F007047FF0CF
:1007400000070023F0E80256083C85EA010586EA26
:10075000010685FA47F5A3FA87F586FA47F6A5FA62
:1007600087F68EB9EED1F0BC01F0FF0102F007026E
:1007700032B110F8013B013A83EA010313B1F8D119
:100780000020704701387047002D06BF35460338FA
:10079000073815F0010F07D1013015F4807F02BF33
:1007A000013015F4C03F0130F0BC0138704700BF84
:1007B00010B504460E4B18784FF47A73B3FBF0F380
:1007C0000C4A1068B0FBF3F000F0DAFD68B90F2CAA
:1007D00001D901200AE0002221464FF0FF3000F04D
:1007E0009BFD034B5C60002000E0012010BD00BFBA
:1007F000000000200800002008B5074A136843F0F5
:1008000010031360032000F075FD0020FFF7D0FFF8
:1008100002F0B4FC002008BD00200240034A116829
:10082000034B1B780B441360704700BFA4010020EA
:1008300000000020014B1868704700BFA401002091
:1008400038B50446FFF7F6FF0546B4F1FF3F02D086
:10085000044B1B781C44FFF7EDFF401BA042FAD36A
:1008600038BD00BF0000002038B50268936803F06F
:100870000303012B01D0002038BD136813F0010FD2
:100880002FD0936803F00D03012B09D0436C43F084
:1008900010034364836C43F0010383640120EBE79E
:1008A0000446936843F002039360036803221A60CE
:1008B000FFF7C0FF054623689B6813F0010F0ED0B9
:1008C000FFF7B8FF401B0228F5D9636C43F0100313
:1008D0006364A36C43F00103A3640120CCE7002010
:1008E000CAE70020C8E7000030B597B000230093A6
:1008F000002800F0F5800446436C13F0100F52D12D
:10090000436CABB1002023689A6812F0805F03D07B
:100910009B6813F0005F47D0636C23F0120343F031
:1009200010036364A36C43F00103A36401203BE064
:1009300083640365C36480F8403002F037FC2368A9
:100940009B6813F0805F01D00020DCE72046FFF7B2
:100950008BFF636C13F0100FD5D10028D3D1636CDB
:1009600023F4885323F0020343F0020363642268F4
:10097000936823F0405393602268936843F0805358
:100980009360584B1B68584AA2FB03239B0C03EB54
:1009900083035A00009202E0009B013B0093009BFE
:1009A000002BF9D1AFE70020636C13F0100F40F07B
:1009B0008E80002840F08B8023689A6812F0040231
:1009C00040F08580616C21F4817141F00201616425
:1009D000B3F1A04F52D04FF0A0410191996801F0BE
:1009E000030101294DD0019B23B1996801F0030156
:1009F00001294BD03D498B6823F4403365682B4374
:100A00008B60E1694B03A56B012D01D04FF480523F
:100A10001343E2681343A2681343626A012A3AD07F
:100A2000E26A012A02D0216B0A43134322689168CB
:100A300011F00C0F0BD1D16821F4804121F002019B
:100A4000D160A169626B520042EA8132134321688E
:100A5000CD68274A2A401343CB602369012B2DD050
:100A60002268136B23F00F0313630023A364636CEA
:100A700023F0030343F0010363642FE01D49019158
:100A8000ACE71B6813F0010FBBD1ACE71B6813F098
:100A9000010FB6D1AEE731B9A26A013A43EA424347
:100AA00043F48033BCE7626C22F0220242F0200261
:100AB0006264A26C42F00102A264B1E721680B6B90
:100AC00023F00F03226A013A13430B63CDE7636CF3
:100AD00023F0120343F010036364012017B030BD0C
:100AE0000120FBE70800002083DE1B4300030050C9
:100AF00007C0F0FF0001005030B496B00022009211
:100B000090F84020012A00F0A4810346012280F8D9
:100B100040200068826812F0040F40F08F814A681C
:100B2000042A31D8046B02EB420255001F22AA406E
:100B300024EA02020C68AC4022430263186882680F
:100B400012F00C0F68D10A68092A4ED9846902EBA9
:100B500042021E3A0725954024EA05048D6805FAED
:100B600002F22243826148691C68E268C2F3C10252
:100B7000520000FA02F208690138032800F28B8063
:100B8000DFE800F04068737E092A0ED8446B02EB60
:100B9000420255001E3D1F22AA4024EA02020C68B0
:100BA00004FA05F52A434263C8E70E2A0ED8846B7F
:100BB00002EB420255003C3D1F22AA4024EA0202F9
:100BC0000C6804FA05F52A438263B7E7C46B02EBAD
:100BD000420255005A3D1F22AA4024EA02020C6834
:100BE00004FA05F52A43C263A8E7446902EB42020E
:100BF0000725954024EA05048D6805FA02F2224390
:100C00004261B0E7206E944D0540086842EA806278
:100C1000154345F0004525661868826802F0030216
:100C2000012A6BD0CA68012A6ED0D0F8B0200D68B6
:100C30000124AC4022EA0402C0F8B0200A68102A5D
:100C400000F08B80112A00F0A980122A00F0AC80FD
:100C50000020F8E0606E804D0540086842EA80623E
:100C6000154345F000456566D6E7A06E7A4D054010
:100C7000086842EA8062154345F00045A566CBE767
:100C8000E56E754828400D6842EA8562024342F0ED
:100C90000042E266C0E7226E02F0F8420868B2EB5A
:100CA000806F1CD01868426E02F0F8420C68B2EBFC
:100CB000846F19D01868826E02F0F8420C68B2EBAB
:100CC000846F16D01868C26E02F0F8420C68B2EB5E
:100CD000846FA1D1C26E22F00042C2669CE7226EF0
:100CE00022F000422266DDE7426E22F000424266B8
:100CF000E0E7826E22F000428266E3E7026812F0CB
:100D0000010F8FD000209EE0D0F8B0200D680124A4
:100D1000AC402243C0F8B0200A68092A0ED91D68E9
:100D2000A86902EB42021B3A0724944020EA04001F
:100D30008C6804FA02F20243AA617FE71D686869C1
:100D4000013202EB42020724944020EA04008C683E
:100D500004FA02F202436A6170E74049896811F4BB
:100D6000000F7FF46FAF1868B0F1A04F23D04FF0A1
:100D7000A0410191816801F0030101291ED0019970
:100D800021B18C6804F00304012C21D0102A24D056
:100D9000112A42D0122A4AD0002054E02F498968F3
:100DA00011F0807FDFD050E72C49896811F4800F63
:100DB000D9D0002047E02A490191DBE7016811F012
:100DC000010FDCD05A6C42F020025A6401203AE054
:100DD000096811F0010FF5D1D8E7B0F1A04FD7D1D4
:100DE0001E498A6842F400028A601E4A1268A1F114
:100DF0004E61A1F58421A1F27D41A1FB0212920C6A
:100E000002EB82025100009102E0009A013A009246
:100E1000009A002AF9D1002015E0B0F1A04FB9D115
:100E20000E498A6842F080728A6000200BE00B490C
:100E30008A6842F480028A60002004E05A6C42F022
:100E400020025A640120002283F8402016B030BCF2
:100E500070470220FAE700BF00F0FF830003005054
:100E60000001005008000020002800F0A18038B5E3
:100E7000044690F82030D3B12268136823F00203AF
:100E80001360FFF7D7FC054623685A6812F0020F7B
:100E900010D0FFF7CFFC401B0A28F5D9636A43F452
:100EA00000336362052384F82030012038BD02F04E
:100EB000ADF9E1E71A6842F001021A60FFF7BAFCE7
:100EC000054623685A6812F0010F0DD1FFF7B2FCF6
:100ED000401B0A28F5D9636A43F400336362052393
:100EE00084F820300120E1E7227E012A3DD01A68F3
:100EF00022F080021A60637E012B3BD022681368C7
:100F000023F040031360A37E012B39D022681368BD
:100F100023F020031360E37E012B37D0226813688F
:100F200043F010031360237F012B35D02268136830
:100F300023F008031360637F012B33D0226813680A
:100F400023F004031360A368E26813432269134388
:100F5000626913436268013A21681343CB61002040
:100F60006062012384F82030A0E71A6842F0800212
:100F70001A60C0E72268136843F040031360C2E7B9
:100F80002268136843F020031360C4E722681368E3
:100F900023F010031360C6E72268136843F00803C8
:100FA0001360C8E72268136843F004031360CAE7BC
:100FB00001207047036890F82020013AD2B2012A3C
:100FC00005D9436A43F4802343620120704770B41B
:100FD000D3F8002242F00102C3F800224A6902F06D
:100FE0001F02012000FA02F2D3F81C42D043044051
:100FF000C3F81C42CC69ACB9D3F80C420440C3F826
:101000000C42CE688D884C6945EA0645483443F861
:1010100034508E680D884C6945EA0645483403EB28
:10102000C4046560CC69012C19D08C6974BBD3F8F9
:1010300004420440C3F804420C696CBBD3F8144268
:101040002040C3F81402096A01292BD0D3F80022EA
:1010500022F00102C3F80022002070BC7047D3F8D0
:101060000C421443C3F80C420E688D884C6945EA63
:101070000645483443F834508E688D894C6945EAFA
:101080000645483403EBC4046560CEE7D3F8044258
:101090001443C3F80442CFE7D3F814021043C3F853
:1010A0001402D0E7D3F81C120A43C3F81C22CDE780
:1010B00070B490F820400568AD68013CE4B2012CA2
:1010C00006D9436A43F480234362012070BC704711
:1010D00015F0E05F5BD0C5F30165022D3ED8012419
:1010E000AC401C608B68002B3ED10E68CB68046856
:1010F00043EA465605F118031B01E65003680C69E4
:1011000005F1180603EB06135C600B7D012B36D04E
:10111000D17993791B0443EA0163517943EA0123AE
:101120001479016823432C012144C1F88C31D17812
:1011300093781B0443EA0163517843EA0123117851
:1011400002680B432244C2F88831026818352D0129
:10115000535943F0010353510020B7E7436A43F466
:10116000000343620120B1E74C6843EAC403CC6842
:101170000668234305F1180424013351BEE70368D0
:1011800003EB0613596841F480715960C0E7436A64
:1011900043F400134362012098E730B490F82040F4
:1011A000013CE4B2012C06D9436A43F48023436234
:1011B000012030BC704700296FD10468E46814F046
:1011C000030F64D0056801F11B0424012C5904F0BD
:1011D00004049460002C6BD1056801F11B04240108
:1011E0002C59640D1460056801F11B0424012D596C
:1011F000C5F34005D560056825446D6805F00F0509
:101200001561056825446D68C5F307259561056876
:101210002C446468240C546104680A011444D4F812
:10122000B8411C7004681444D4F8B841C4F30724CE
:101230005C7004681444D4F8B841C4F307449C704B
:1012400004681444D4F8B841240EDC7004681444D3
:10125000D4F8BC411C7104681444D4F8BC41C4F3F4
:1012600007245C7104681444D4F8BC41C4F30744F7
:101270009C7104682244D2F8BC21120EDA71F9B9CB
:101280000268D36843F02003D360002091E7436AEB
:1012900043F40013436201208BE70468246914F0CF
:1012A000030F8FD1436A43F400134362012080E7A8
:1012B000056801F11B0424012C59E408546092E7ED
:1012C0000268136943F020031361002071E790F86E
:1012D0002030013BDBB2012B01D90020704721B146
:1012E0000368186900F0030070470368D86800F0CD
:1012F00003007047074AD36823F4E0631B041B0C08
:10130000000200F4E060184340F0BF6040F4003099
:10131000D060704700ED00E030B4174BDB68C3F3DA
:101320000223C3F10704042C28BF04241D1D062D2D
:1013300018D9033B4FF0FF3505FA04F421EA040104
:10134000994005FA03F322EA0303194300280BDB53
:101350000901C9B200F1604000F5614080F8001356
:1013600030BC70470023E5E700F00F000901C9B267
:10137000024B1954F4E700BF00ED00E014ED00E06B
:101380000138B0F1807F0AD2064B5860064AF0213E
:1013900082F823100020986007221A60704701200D
:1013A000704700BF10E000E000ED00E0F0B482B054
:1013B000002336E0032400E00024B4403C4302351F
:1013C000584E46F82540584C2568D44304EA050693
:1013D0004F6817F4803F01D042EA0506524D2E6057
:1013E0006D6804EA05064F6817F4003F01D042EA31
:1013F00005064D4D6E60AD6804EA05064F6817F4AA
:10140000801F01D042EA0506474DAE60ED682C40D2
:101410004E6816F4001F01D042EA0504424AD46027
:1014200001330A6832FA03F478D001249C40224048
:10143000F6D04D68022D01D0122D10D1DE080836ED
:1014400050F826C003F00705AF000F25BD402CEA79
:10145000050C0D69BD4045EA0C0540F826500668AC
:101460005F000325BD40ED4305EA060C4E6806F01B
:101470000306BE4046EA0C0606604E6806F1FF3CD5
:10148000BCF1010F03D9112E01D0122E10D18668A4
:1014900005EA060CCE68BE4046EA0C068660466841
:1014A00026EA04044E68C6F300169E4026434660B2
:1014B000C46825408C68BC402C43C4604C6814F060
:1014C000805FADD0194CA56945F00105A561A469FF
:1014D00004F001040194019C9D08AE1C114C54F8C9
:1014E000267003F00304A6000F24B44027EA040783
:1014F000B0F1904F3FF460AF0D4CA0420AD004F51C
:101500008064A04208D004F58064A0423FF452AF4A
:10151000052452E7012450E702244EE702B0F0BC54
:10152000704700BF0000014000040140001002406D
:10153000000400480AB98162704781617047000069
:10154000002800F0F58270B582B00446036813F0FD
:10155000010F3BD0B54B5B6803F00C03042B1ED08E
:10156000B24B5B6803F00C03082B13D06368B3F530
:10157000803F68D0002B40F0928003F1804303F558
:1015800004331A6822F480321A601A6822F4802226
:101590001A605DE0A54B5B6813F4803FE6D04FF422
:1015A000003393FAA3F3A14B19684FF4003393FA75
:1015B000A3F3B3FA83F303F01F03012202FA03F348
:1015C0000B4203D06368002B00F0B482236813F051
:1015D000020F00F0C680954B5B6813F00C0F00F013
:1015E0009C80924B5B6803F00C03082B00F08F800B
:1015F0002369002B00F0F380012292FAA2F3B3FAE0
:1016000083F303F1845303F584139B001A60FFF7FF
:1016100011F90546022393FAA3F3844B19680223B8
:1016200093FAA3F3B3FA83F303F01F03012202FA40
:1016300003F30B4240F0C480FFF7FCF8401B022884
:10164000E8D9032083E2794A136843F480331360B6
:10165000764AD36A23F00F03A1680B43D362636811
:10166000002B36D0FFF7E6F805464FF4003393FA27
:10167000A3F36E4B19684FF4003393FAA3F3B3FA54
:1016800083F303F01F03012202FA03F30B429DD1FF
:10169000FFF7D0F8401B6428E7D9032057E2B3F5E1
:1016A000A02F09D0614B1A6822F480321A601A68A0
:1016B00022F480221A60CBE703F18043A3F53C3388
:1016C0001A6842F480221A601A6842F480321A6062
:1016D000BEE7FFF7AFF805464FF4003393FAA3F3E4
:1016E000524B19684FF4003393FAA3F3B3FA83F320
:1016F00003F01F03012202FA03F30B423FF466AF2B
:10170000FFF798F8401B6428E6D903201FE2474BF7
:101710005B6813F4803F7FF46BAF022393FAA3F36B
:10172000424B1968022393FAA3F3B3FA83F303F04D
:101730001F03012202FA03F30B4204D023699342F0
:1017400001D0012003E23948036823F0F8036169FE
:10175000F82292FAA2F2B2FA82F201FA02F21343EA
:101760000360236813F0080F00F08C80A369002B3E
:1017700060D0012191FAA1F2B2FA82F22C4B13440B
:101780009B001960FFF756F80546022393FAA3F26F
:1017900093FAA3F293FAA3F2244A516A93FAA3F3B9
:1017A000B3FA83F303F01F03012202FA03F30B429F
:1017B00068D1FFF73FF8401B0228E6D90320C6E1B5
:1017C0001A48036823F0F8036169F82292FAA2F23A
:1017D000B2FA82F201FA02F213430360C1E7012375
:1017E00093FAA3F3B3FA83F303F1845303F5841359
:1017F0009B0000221A60FFF71DF80546022393FAAA
:10180000A3F30A4B1968022393FAA3F3B3FA83F301
:1018100003F01F03012202FA03F30B42A1D0FFF7EA
:1018200009F8401B0228E9D9032090E1001002408A
:1018300020819010012292FAA2F2B2FA82F2C04BF9
:1018400013449B0000221A60FEF7F4FF05460223B2
:1018500093FAA3F293FAA3F293FAA3F2B94A516A64
:1018600093FAA3F3B3FA83F303F01F03012202FAFE
:1018700003F30B4206D0FEF7DDFF401B0228E6D93A
:10188000032064E1236813F0040F00F0B380AD4B34
:10189000DB6913F0805F20D1AA4BDA6942F08052F5
:1018A000DA61DB6903F080530193019B0125A64BAC
:1018B0001B6813F4807F12D0E368012B23D073BB25
:1018C00003F1804303F504331A6A22F001021A621D
:1018D0001A6A22F004021A621AE00025E7E79A4A1F
:1018E000136843F480731360FEF7A4FF0646964B1B
:1018F0001B6813F4807FDFD1FEF79CFF801B6428F8
:10190000F5D9032023E18F4A136A43F001031362E0
:10191000E368002B41D0FEF78DFF06462BE0052B38
:1019200009D0884B1A6A22F001021A621A6A22F060
:1019300004021A62ECE7834B1A6A42F004021A624C
:101940001A6A42F001021A62E2E77E4B196A022328
:1019500093FAA3F3B3FA83F303F01F03012202FA0D
:1019600003F3194245D1FEF765FF801B41F288332E
:10197000984200F2E180022393FAA3F293FAA3F3D0
:10198000B3FA83F35B0943F00203022BDDD0022399
:1019900093FAA3F36B4B596AD9E7FEF74BFF064660
:1019A00015E0684B196A022393FAA3F3B3FA83F3A1
:1019B00003F01F03012202FA03F3194219D0FEF7C4
:1019C00039FF801B41F28833984200F2B78002232E
:1019D00093FAA3F293FAA3F3B3FA83F35B0943F008
:1019E0000203022BDDD0022393FAA3F3554B596A6D
:1019F000D9E7B5BBE369002B00F0A880514A5268D3
:101A000002F00C02082A00F0A480022B2FD04FF025
:101A1000807393FAA3F3B3FA83F303F1845303F5CA
:101A200084139B0000221A60FEF704FF04464FF067
:101A3000007393FAA3F3434B19684FF0007393FAC2
:101A4000A3F3B3FA83F303F01F03012202FA03F3B3
:101A500019426BD0FEF7EEFE001B0228E7D90320E7
:101A600075E0384AD36923F08053D361C2E74FF061
:101A7000807393FAA3F3B3FA83F303F1845303F56A
:101A800084139B0000221A60FEF7D4FE05464FF037
:101A9000007393FAA3F32B4B19684FF0007393FA7A
:101AA000A3F3B3FA83F303F01F03012202FA03F353
:101AB000194206D0FEF7BEFE401B0228E7D90320DC
:101AC00045E020494B6823F47413626A206A02439C
:101AD00013434B604FF0807393FAA3F3B3FA83F38D
:101AE00003F1845303F584139B0001221A60FEF76F
:101AF000A1FE04464FF0007393FAA3F3114B19684B
:101B00004FF0007393FAA3F3B3FA83F303F01F03C8
:101B1000012202FA03F3194206D1FEF78BFE001BE5
:101B20000228E7D9032012E0002010E000200EE098
:101B30000120704701200AE0032008E0032006E0AE
:101B4000208190100010024000700040002002B080
:101B500070BD0120FBE700BF10B4174B5C6804F0B8
:101B60000C03082B26D104F470124FF4701393FA6F
:101B7000A3F3B3FA83F322FA03F31049C85C0E4BC4
:101B8000DB6A03F00F030F2292FAA2F2B2FA82F29A
:101B9000D3400B441A7C14F4803F05D1084B03FB5F
:101BA00000F05DF8044B7047064BB3FBF2F300FB0B
:101BB00003F0F6E70348F4E7001002409C3F0008FA
:101BC00000093D0000127A00002800F0C08070B5C6
:101BD0000446614B1B6803F007038B420CD25E4A3C
:101BE000136823F007030B431360136803F0070324
:101BF0008B4201D0012070BD236813F0020F06D084
:101C0000564A536823F0F003A068034353600D461F
:101C1000236813F0010F5AD06368012B2DD0022BDB
:101C200040D0022292FAA2F24C4A1068022292FAA2
:101C3000A2F2B2FA82F202F01F02012101FA02F2CC
:101C4000104200F0868045494A6822F0030213439F
:101C50004B60FEF7EFFD0646404B5B6803F00C035C
:101C60006268B3EB820F32D0FEF7E4FD801B41F2D5
:101C700088339842F0D90320BDE74FF4003292FA3E
:101C8000A2F2364A10684FF4003292FAA2F2B2FA87
:101C900082F202F01F02012101FA02F20242D2D1C5
:101CA0000120A8E74FF0007292FAA2F22B4A1068C6
:101CB0004FF0007292FAA2F2B2FA82F202F01F0220
:101CC000012101FA02F21042BDD1012093E7224B1B
:101CD0001B6803F00703AB420CD91F4A136823F0BB
:101CE00007032B431360136803F00703AB4201D0D3
:101CF000012080E7236813F0040F06D0174A5368C9
:101D000023F4E063E1680B435360236813F0080F8A
:101D100007D0124A536823F46053216943EAC10390
:101D20005360FFF719FF0D4B5B6803F0F003F022DF
:101D300092FAA2F2B2FA82F2D340094AD35CD840B6
:101D4000084B18600020FEF733FD002053E7012008
:101D5000704701204FE700BF002002400010024002
:101D6000BC3F000808000020014B1868704700BF06
:101D70000800002008B5FFF7F7FF074B5B6803F486
:101D8000E0634FF4E06292FAA2F2B2FA82F2D34038
:101D9000024AD35CD84008BD00100240CC3F000886
:101DA00008B5FFF7E1FF074B5B6803F460534FF49E
:101DB000605292FAA2F2B2FA82F2D340024AD35CA3
:101DC000D84008BD00100240CC3F0008F0B583B0F9
:101DD0000446036813F4803F44D05F4BDB6913F083
:101DE000805F6ED15C4BDA6942F08052DA61DB6968
:101DF00003F080530193019B0125584B1B6813F49A
:101E0000807F60D0544B1B6A13F4407321D062680A
:101E100002F440729A421CD04F48016A21F4407685
:101E20004FF4803393FAA3F2B2FA82F24C4F3A4461
:101E300092004FF0010CC2F800C093FAA3F3B3FA7A
:101E400083F33B449B0000221A60066211F0010FED
:101E50004DD1414A136A23F4407361680B43136206
:101E6000002D6FD1236813F0010F06D03A4A136B8F
:101E700023F00303A1680B431363236813F0200FBF
:101E800006D0354A136B23F01003E1680B4313634C
:101E9000236813F0800F06D02F4AD36A23F4F87317
:101EA00021690B43D362236813F4805F51D02A4A1F
:101EB000136B23F4807361690B431363002003B039
:101EC000F0BD002599E7254A136843F48073136039
:101ED000FEF7B0FC0646214B1B6813F4807F91D1BE
:101EE000FEF7A8FC801B6428F5D90320E7E7FEF77E
:101EF000A1FC064614E0184B196A022393FAA3F3D7
:101F0000B3FA83F303F01F03012202FA03F30B4237
:101F10009FD1FEF78FFC801B41F28833984216D880
:101F2000022393FAA3F293FAA3F3B3FA83F35B09C0
:101F300043F00203022BDED0022393FAA3F3064BF5
:101F4000596ADAE7D36923F08053D3618AE7032023
:101F5000B5E70020B3E700BF00100240007000406A
:101F6000008190100368224A904206D0B0F1804F61
:101F700003D0A2F59432904203D123F070034A6853
:101F800013431B4A904212D0B0F1804F0FD0A2F5FC
:101F9000943290420BD002F59E32904207D002F567
:101FA0008062904203D002F58062904203D123F414
:101FB0004073CA68134323F080034A6913430360E4
:101FC0008B68C3620B688362094B98420BD003F5A0
:101FD000A053984207D003F58063984203D003F5DD
:101FE0008063984201D10B69036301234361704709
:101FF000002C0140A8B110B5044690F83D305BB10B
:10200000022384F83D30211D2068FFF7ABFF012338
:1020100084F83D30002010BD80F83C3001F082F99A
:10202000EEE701207047A8B110B5044690F83D30A6
:102030005BB1022384F83D30211D2068FFF792FF39
:10204000012384F83D30002010BD80F83C3001F0C1
:1020500043F9EEE701207047002849D0F8B505465E
:102060000C4690F83D30002B3DD0022385F83D30E2
:10207000294651F8042B936823F4803323F0070397
:1020800093602868FFF76EFF29688A688E690F6A77
:102090002068104326F4407626F00306A268A36960
:1020A00042EA0323334323F47C4323F0FC03E66832
:1020B000E26946EA02261E43226A1303226943EAC2
:1020C0000213334327F0AA076268646942EA0412E4
:1020D0003A43886029688B612B681A62012385F86E
:1020E0003D300020F8BD80F83C3001F0C3F8BCE77B
:1020F0000120704730B4036A23F001030362036ACE
:102100004468826922F4803222F073020D682A4307
:1021100023F002038D682B43184DA8420BD005F520
:10212000A055A84207D005F58065A84203D005F563
:102130008065A84205D123F00803CD682B4323F026
:1021400004030E4DA8420BD005F5A055A84207D0B8
:1021500005F58065A84203D005F58065A84205D144
:1021600024F440754C692C438D692C434460826192
:102170004A684263036230BC704700BF002C0140D4
:1021800030B4036A23F010030362036A446882696F
:1021900022F0807222F4E6420D6842EA052223F022
:1021A00020038D6843EA0513144DA8421DD0134D3A
:1021B000A8420BD005F5A055A84207D005F58065CB
:1021C000A84203D005F58065A84207D124F44064F5
:1021D0004D6944EA85048D6944EA8504446082615E
:1021E0004A688263036230BC704723F08003CD6885
:1021F00043EA051323F04003D9E700BF002C014058
:1022000030B4036A23F480730362036A4468C269CA
:1022100022F4803222F073020D682A4323F4007303
:102220008D6843EA0523144DA8421DD0124DA842E3
:102230000BD005F5A055A84207D005F58065A8424A
:1022400003D005F58065A84207D124F440544D69B8
:1022500044EA05148D6944EA05144460C2614A6881
:10226000C263036230BC704723F40063CD6843EA65
:10227000052323F48063D9E7002C014030B4036ABE
:1022800023F480530362026A4468C36923F08073B5
:1022900023F4E6430D6843EA052322F400528D68D7
:1022A00042EA05320D4DA8420BD005F5A055A842D3
:1022B00007D005F58065A84203D005F58065A842E2
:1022C00004D124F480444D6944EA85144460C36118
:1022D0004B680364026230BC704700BF002C0140B1
:1022E00010B4012303FA01F4036A23EA040303622E
:1022F000036A8A40134303625DF8044B7047000091
:1023000010B5044601220068FFF7EAFF23680D4A72
:1023100093420BD002F5A052934207D002F580629F
:10232000934203D002F58062934203D15A6C42F487
:1023300000425A642268136843F0010313600020CE
:1023400010BD00BF002C014010B5044600220068FB
:10235000FFF7C6FF2368194A93421FD002F5A05227
:1023600093421BD002F58062934217D002F580623F
:10237000934213D02368196A41F21112114208D115
:10238000196A40F24442114203D11A6822F0010254
:102390001A60012384F83D30002010BD196A41F213
:1023A00011121142E6D1196A40F244421142E1D1C0
:1023B0005A6C22F400425A64DCE700BF002C014052
:1023C00010B5044661B1042916D00122002100682D
:1023D000FFF786FF012204212068FFF781FF04E058
:1023E000012200210068FFF77BFF2268136843F099
:1023F00001031360002010BD012204210068FFF7D3
:102400006FFFF2E730B4036A23F480330362036A98
:102410004468426D22F4803222F070020D682A4333
:1024200023F400338D6843EA05430D4DA8420BD0D9
:1024300005F5A055A84207D005F58065A84203D050
:1024400005F58065A84204D124F480344D6944EA3E
:102450000524446042654A688265036230BC704767
:10246000002C014030B4036A23F480130362026A33
:102470004468436D23F0807323F4E0430D6843EA1E
:10248000052322F400128D6842EA05520D4DA84240
:102490000BD005F5A055A84207D005F58065A842E8
:1024A00003D005F58065A84204D124F480244D6949
:1024B00044EA8524446043654B68C365026230BCCE
:1024C000704700BF002C014038B590F83C30012B1C
:1024D00000F092800D460446012380F83C30022330
:1024E00080F83D30142A1ED8DFE802F00B1D1D1DB8
:1024F000241D1D1D381D1D1D4B1D1D1D5F1D1D1D7A
:1025000072000068FFF7F6FD2268936943F0080344
:1025100093612268936923F00403936122689369AD
:1025200029690B439361012384F83D30002084F82E
:102530003C0038BD0068FFF723FE2268936943F42E
:10254000006393612268936923F480639361226836
:102550009369296943EA01239361E4E70068FFF77F
:102560004FFE2268D36943F00803D3612268D36920
:1025700023F00403D3612268D36929690B43D36133
:10258000D1E70068FFF77AFE2268D36943F400635D
:10259000D3612268D36923F48063D3612268D3694D
:1025A000296943EA0123D361BDE70068FFF72AFFE9
:1025B0002268536D43F0080353652268536D23F07E
:1025C000040353652268536D29690B435365AAE7D9
:1025D0000068FFF747FF2268536D43F400635365BB
:1025E0002268536D23F4806353652268536D296913
:1025F00043EA0123536596E702209AE790F83C30BE
:10260000012B1FD030B4012380F83C30026853689E
:1026100095680D4CA24210D023F070030C68234340
:1026200025F0800489682143536003689960002382
:1026300080F83C30184630BC704723F470034C6877
:102640002343E9E702207047002C014010B50446FF
:1026500083680269134342691343C26913430168E3
:102660000868654A024013430B602268536823F4EC
:102670004053E1680B435360A369226A1A432168FF
:102680008B6823F4306313438B6023685B4A934267
:1026900015D05B4A934229D002F58062934221D043
:1026A0001022E169B1F5004F22D0082A00F2A28081
:1026B000DFE802F066727EA08AA0A0A0960002F574
:1026C0005842126B02F00302032A09D8DFE802F035
:1026D0000204060C0022E4E70422E2E70822E0E715
:1026E0001022DEE70022DCE70222DAE70022D8E748
:1026F000082A42D8DFE802F0051722412D41414166
:102700003800FFF737FB6268530803EB4003B3FB65
:10271000F2F39BB2002023F00F02C3F342031343F2
:102720002268D36010BDFFF73BFB6268530803EBE0
:102730004003B3FBF2F39BB20020ECE7626853085E
:1027400003F5740303F51053B3FBF2F39BB20020BF
:10275000E1E7FFF701FA6268530803EB4003B3FBBC
:10276000F2F39BB20020D6E76268530803F580338A
:10277000B3FBF2F39BB20020CDE701200023CAE7B0
:10278000FFF7F8FA636800EB5300B0FBF3F023683F
:1027900080B2D8600020C5E7FFF702FB636800EB5A
:1027A0005300B0FBF3F0236880B2D8600020B9E793
:1027B00061684A0802F5F40202F59052B2FBF1F2A8
:1027C00092B2DA600020ADE7FFF7C6F9636800EB6C
:1027D0005300B0FBF3F0236880B2D8600020A1E77B
:1027E00061684A0802F50042B2FBF1F292B2DA6087
:1027F000002097E7012095E7F369FFEF00380140DB
:1028000000440040436A13F0010F06D00268536889
:1028100023F40033816A0B435360436A13F0020FC1
:1028200006D00268536823F48033C16A0B435360B7
:10283000436A13F0040F06D00268536823F4802320
:10284000016B0B435360436A13F0080F06D0026814
:10285000536823F40043416B0B435360436A13F006
:10286000100F06D00268936823F48053816B0B43EA
:102870009360436A13F0200F06D00268936823F434
:102880000053C16B0B439360436A13F0400F0AD0AF
:102890000268536823F48013016C0B435360036C8C
:1028A000B3F5801F0BD0436A13F0800F06D0026887
:1028B000536823F40023816C0B4353607047026814
:1028C000536823F4C003416C0B435360EBE72DE9DD
:1028D000F04105460F4616469846069C2B68DB6974
:1028E00037EA03030CBF01230023B3421DD1B4F127
:1028F000FF3FF3D02CB1FDF79DFFA0EB0800A042F5
:10290000ECD92A68136823F4D07313602A6893689B
:1029100023F001039360202385F8693085F86A303D
:10292000002385F86830032000E00020BDE8F08136
:102930002DE9F04182B01E4690F86930DBB2202BC1
:102940004ED104460D46904600294ED0002A4ED066
:1029500090F86830012B4CD0012380F868300023B8
:10296000C366212380F86930FDF764FF0746A4F8A9
:102970005080A4F8528003E023682A781A85013534
:10298000B4F852309BB2DBB1B4F85230013B9BB289
:10299000A4F8523000963B46002280212046FFF7E3
:1029A00096FF40BBA368B3F5805FE5D12369002B98
:1029B000E2D1226835F8023BC3F308031385DFE751
:1029C00000963B46002240212046FFF780FF034649
:1029D00098B9202284F86920002284F8682000E059
:1029E0000223184602B0BDE8F0810123F9E7012374
:1029F000F7E70223F5E70323F3E70323F1E730B515
:102A000083B004460023C366FDF714FF0546236820
:102A10001B6813F0080F0ED123681B6813F0040F16
:102A200017D1202384F8693084F86A30002084F8B4
:102A3000680003B030BD6FF07E4300930346002270
:102A40004FF400112046FFF742FF0028E4D0032096
:102A5000EFE76FF07E4300932B4600224FF4800196
:102A60002046FFF734FF0028DBD00320E1E778B3EE
:102A700010B5044690F869300BB3242384F869300C
:102A80002268136823F0010313602046FFF7DEFD80
:102A9000012813D0636ABBB92268536823F49043BA
:102AA00053602268936823F02A03936022681368B6
:102AB00043F0010313602046FFF7A1FF10BD80F82B
:102AC000683000F09BFCD8E72046FFF79BFEE3E769
:102AD0000120704700283ED0F8B504461D46164632
:102AE0000F4690F869306BB3242384F8693022686C
:102AF000136823F0010313602046FFF7A7FD0128A8
:102B00001FD0636A1BBB2268936843F480439360C1
:102B10002268936823F400433B439360290441EA0D
:102B200046522368196821F07F7121F44031114326
:102B300019602268136843F0010313602046FFF711
:102B40005EFFF8BD80F8683000F058FCCCE7204606
:102B5000FFF758FED7E701207047000008B53C2179
:102B60000348FFF72DFC034B4FF400425A6208BDA7
:102B700068030020002C0140044A536AA3F5004377
:102B800003804FF400435362704700BF002C0140A4
:102B900010B588B000240394049405940694079417
:102BA000184B5A6942F400325A615A6902F40032F1
:102BB0000192019A5A6942F480225A615B6903F4D6
:102BC00080230293029B224648F260014FF090401E
:102BD000FEF7B0FC48F260030393012304930594CD
:102BE000069403A94FF09040FEF7E0FB4FF480639A
:102BF00003930494059403A94FF09040FEF7D6FB8D
:102C000008B010BD0010024070B586B000240094DA
:102C100001940294039404940594104D104B2B607E
:102C20006C60AC602C61EC616C622C630126EE621E
:102C3000EC602E626C6304236B61AC61AC6328466C
:102C4000FDF752FE009601960394029404940594B5
:102C500069462846FDF750FF06B070BDA801002068
:102C600000010050F8B5154D154B2B6010276F6013
:102C70000024AC60EC602C616C612C766C76AC76D8
:102C8000EC762C776C772846FEF7EEF80D4920237A
:102C90000B604C604FF6E0738B600423CB608C615B
:102CA0000126CE610C610E622846FEF783F9064BC1
:102CB0009C60DC601F605F601E61F8BD58020020F0
:102CC00000640040800200205804002030B58DB020
:102CD0002022002104A800F049FD00240094019462
:102CE00002940D4D0D4B2B606C60AC60EC602C6160
:102CF0006C61AC61012303930593099303A92846F2
:102D0000FFF7AAF900940194029469462846FFF758
:102D100075FC0DB030BD00BF68030020002C0140E1
:102D200030B58BB000240794089409940094019462
:102D300002940394049405940694104D4FF080433C
:102D40002B606C60AC60EC602C61AC612846FFF7D6
:102D50006AF90794099407A92846FFF74FFC6023F6
:102D60000093019402940494224669462846FFF792
:102D7000ABFB284600F0ECFA0BB030BDA8030020F6
:102D800030B58BB000240794089409940094019402
:102D900002940394049405940694154D154B2B60EE
:102DA0006C60AC60EC602C61AC612846FFF73BF9CD
:102DB0000794099407A92846FFF720FC6023009395
:102DC000019402940494042269462846FFF77CFB90
:102DD000082269462846FFF777FB0C2269462846F9
:102DE000FFF772FB284600F0B3FA0BB030BD00BF0E
:102DF000B00200200004004008B50648064B0360FE
:102E0000002343608360C360036143618361FFF714
:102E1000F1F808BDFC0100200048014008B5094850
:102E2000094B03604FF41643436000238360C36083
:102E300003610C2242618361C36103624362FFF755
:102E400016FE08BDF00200200038014008B50A480F
:102E50000A4B03604FF41643436000218160C16058
:102E600001610C2343618161C161016241620B46D2
:102E70000A46FFF72FFE08BDE8030020004400408B
:102E800070B596B0202200210DA800F06FFC002440
:102E90000794089409940A940B940194029403945F
:102EA00004940594069402250C950126109610238F
:102EB000119313954FF4C01315930CA8FEF740FB24
:102EC0000F230793089509940A940B94314607A899
:102ED000FEF77AFE41F28103019303944FF480736D
:102EE0000593069401A8FEF771FF16B070BD0000AF
:102EF00008B5FDF781FCFFF7C3FFFFF749FEFFF7B9
:102F000083FEFFF7AFFEFFF7E1FEFFF709FFFFF7D4
:102F100037FFFFF771FFFFF781FFFFF797FF00F023
:102F20000DF9FFF71BFE4FF49670FDF789FC9FED3E
:102F30002E0A00F01FF92D4C20604FF4FA60FDF7C7
:102F40007FFC9FED2B0A00F015F920604FF4FA602A
:102F5000FDF776FC00F000F94FF4FA70FDF770FC15
:102F600004212448FFF7CCF920E0204C201DFFF776
:102F700003FE04F10805B4F904201F49284600F0B7
:102F8000FDFB2846FDF7B8FB642382B229461B48A7
:102F9000FFF7CEFC1A4AA3881370012319491A4877
:102FA000FEF786F84FF4FA70FDF74AFC114C2368DF
:102FB0004FF448729A634FF4FA70FDF741FC2368AE
:102FC000C8229A634FF4FA70FDF73AFC00210E48CC
:102FD000FEF77DF90028C8D00C4B0D4A00210A48A5
:102FE000FEF7DBF8C1E700BFCDCC4C3F8C000020E2
:102FF000CDCC4CBFB0020020D43F0008E803002035
:10300000600300205804002058020020A80200207D
:103010003C02002008B5B5EEC00AF1EE10FA18DA4D
:10302000B5EEC00AF1EE10FA20D4DFED1D7AB4EE51
:10303000670AF1EE10FA26D0002220214FF09040CE
:10304000FEF778FA002240214FF09040FEF772FA26
:103050000BE0002220214FF09040FEF76BFA012296
:1030600040214FF09040FEF765FA08BD0122202173
:103070004FF09040FEF75EFA002240214FF0904062
:10308000FEF758FAF1E7012220214FF09040FEF7B9
:1030900051FA012240214FF09040FEF74BFAE4E74D
:1030A000002474490000000008B52DED028BB0EE3D
:1030B000408ADFED1F7AB4EE670AF1EE10FA13D002
:1030C000F7EE000A00F0EEFA10EE100AFDF7E4F950
:1030D0009FED151B41EC100B00F074FA51EC100B36
:1030E000FDF7BAFA08EE100AB0EE480AFFF792FFB1
:1030F000DFED0F7AB4EE678AF1EE10FA10D0B0EE81
:10310000C88ADFED0C7A28EE278ABCEEC88A18EE52
:10311000103A98B2084B1B685863BDEC028B08BD8F
:103120000020F7E7AFF30080000000000000F0BFD0
:103130000024744900007A44A803002008B59FEDDC
:10314000040AFFF7B1FF00210248FFF7D9F808BDD4
:1031500000000000A803002008B59FED040AFFF757
:10316000A3FF00210248FFF7EFF808BD00000000B0
:10317000A803002008B5FFF797FF08BD82B00A4BEF
:103180009A6942F001029A619A6902F00102009282
:10319000009ADA6942F08052DA61DB6903F0805309
:1031A0000193019B02B070470010024000B589B046
:1031B0000023039304930593069307930268114B2E
:1031C0009A4202D009B05DF804FB0F4B5A6942F0F5
:1031D00080525A615A6902F080520192019A5A69EA
:1031E00042F400325A615B6903F400330293029B9C
:1031F000102303930323049303A94FF09040FEF799
:10320000D5F8DFE7000100500010024000B589B09A
:103210000023039304930593069307930268144BCA
:103220009A4202D009B05DF804FB03F5D633DA699F
:1032300042F00072DA61DA6902F000720192019ADA
:103240005A6942F400325A615B6903F40033029315
:10325000029B4FF4C053039302230493032306936A
:103260000923079303A94FF09040FEF79FF8D9E791
:103270000064004000B589B00023039304930593D4
:10328000069307930268134B9A4202D009B05DF887
:1032900004FB03F564439A6942F400629A619A69F7
:1032A00002F400620192019A5A6942F400325A61B2
:1032B0005B6903F400330293029B4FF44073039362
:1032C000022304930623079303A94FF09040FEF7CF
:1032D0006DF8DBE7002C014082B00368B3F1804F4A
:1032E00004D00E4A93420DD002B0704703F5043368
:1032F000DA6942F00102DA61DB6903F0010300934D
:10330000009BF1E7064BDA6942F00202DA61DB6901
:1033100003F002030193019BE6E700BF00040040B5
:10332000001002400268094B9A4200D0704782B0F8
:1033300003F548439A6942F480229A619B6903F439
:1033400080230193019B02B0704700BF00480140F9
:1033500010B588B000230393049305930693079355
:103360000368B3F1804F04D0214A934217D008B0CC
:1033700010BD03F504335A6942F400325A615B69A7
:1033800003F400330093009B012303930222049271
:10339000079303A94FF09040FEF708F8E7E7154BB5
:1033A0005A6942F400325A615A6902F400320192B9
:1033B000019A5A6942F480225A615B6903F48023BE
:1033C0000293029B8023039302240494079403A98D
:1033D0004FF09040FDF7EAFF03230393049400238A
:1033E00005930693079403A90348FDF7DFFFBEE7A3
:1033F00000040040001002400004004800B58BB0FB
:103400000023059306930793089309930368254ABD
:10341000934205D0244A934222D00BB05DF804FBBE
:10342000224B9A6942F480429A619A6902F480427E
:103430000192019A5A6942F480225A615B6903F44D
:1034400080230293029BC023059302230693032348
:1034500008930723099305A91548FDF7A7FFDCE7A3
:10346000124BDA6942F40032DA61DA6902F40032AE
:103470000392039A5A6942F400325A615B6903F479
:1034800000330493049B0E23059302230693032326
:1034900008930723099305A94FF09040FDF786FF95
:1034A000BBE700BF0038014000440040001002406C
:1034B000000400487047FEE7FEE7FEE7FEE77047BE
:1034C0007047704708B5FDF7A9F908BD08B5034670
:1034D0000B4A126842B10A4A106803446A46934292
:1034E00006D8074A136008BD054A06491160F2E78D
:1034F00000F012F90C2303604FF0FF30F3E700BF38
:1035000094010020780400201549D1F8883043F454
:103510007003C1F88830134B1A6842F001021A6038
:103520005868114A02405A601A6822F0847222F4E4
:1035300080321A601A6822F480221A605A6822F4D3
:10354000FE025A60DA6A22F00F02DA62186B074A4A
:1035500002401A6300229A604FF000638B6070474C
:1035600000ED00E0001002400CC07FF8CCFC00FF32
:10357000DFF834D0002103E00C4B5B58435004319A
:103580000B480C4B42189A42F6D30B4A02E0002338
:1035900042F8043B094B9A42F9D3FFF7B5FF00F01C
:1035A000C1F8FFF7A5FCFEE7003000201C40000832
:1035B0000000002070000020700000207404002033
:1035C000FEE7000008B52DED048BB0EE418AF0EE69
:1035D000618AB0EE409AF0EE609A00F01FF830B9C0
:1035E000B0EE480AF0EE680ABDEC048B08BDB0EE00
:1035F000480AF0EE680A00F011F838B153EC182BC5
:1036000051EC190BFDF71EF80028E9D0B0EE490A7D
:10361000F0EE690ABDEC048B08BD00BF51EC100B45
:1036200031F000420B4609D01C4910B4A3F58014B8
:103630008C4215D804205DF8044B704770B101F13D
:10364000FF43164903F5E0038B4218D9B2F5801FFA
:1036500019D3134B9A421CD00020704702207047A8
:1036600003F1FF430D4903F5E0038B42E2D9B2F5C4
:10367000801F06D30A4B9A4207D00020DBE70420C4
:1036800070470320D7E703207047B0FA80F0400965
:10369000D1E7B0FA80F04009704700BFFFFFDF7F3D
:1036A0000000F07F08B52DED028BB0EE608AF0EEE1
:1036B000408A00F015F820B9B0EE480ABDEC028B44
:1036C00008BDB0EE480A00F00BF820B1F4EEC88A4D
:1036D000F1EE10FAF0D5B0EE680ABDEC028B08BD31
:1036E00010EE103A33F000400ED0A0F50003B3F115
:1036F000FE4F0BD3074B421E9A4209D9A0F1FF405F
:10370000B0FA80F0400970470220704704207047EB
:1037100003207047FEFF7F00014B1868704700BF11
:103720000C00002070B50D4E0D4CA41BA4100025FC
:10373000A54209D10B4E0C4C00F024FCA41BA41094
:103740000025A54205D170BD56F8253098470135B2
:10375000EEE756F8253098470135F2E714400008A7
:1037600014400008144000081840000802440346B2
:10377000934200D1704703F8011BF9E70EB400B57E
:103780009CB01DAB029006906FF000410948079174
:103790000491094953F8042B05910068019302A98B
:1037A00000F066F8029B00221A701CB05DF804EB72
:1037B00003B070470C0000200802FFFF2DE9F0471E
:1037C0008E689E4282460C469046994637D88A8932
:1037D00012F4906F31D0256809696F1A6569022368
:1037E00005EB450595FBF3F509F101033B449D42CB
:1037F00038BF1D46530530D5294600F029FB064643
:1038000050B90C23CAF80030A38943F04003A381C8
:103810004FF0FF30BDE8F0873A46216900F0A6FA84
:10382000A38923F4906343F08003A381266165613B
:103830003E44ED1B2660A5604E464E4500D94E46DF
:1038400032464146206800F09CFAA3689B1BA360A7
:1038500023681E4426600020DCE72A4600F052FB65
:1038600006460028E2D12169504600F0A3FAC8E7D5
:103870002DE9F04F9DB0804603938B891D060C46C1
:1038800016460FD50B696BB9402100F0E1FA2060B4
:10389000206128B90C23C8F800304FF0FF30C7E092
:1038A000402363610023099320238DF829303023BE
:1038B0008DF82A304FF0010B37463D4615F8013B95
:1038C0000BB1252B3ED1B7EB060A0BD0534632463F
:1038D00021464046FFF772FF013000F0A480099BAB
:1038E000534409933B78002B00F09D8000234FF058
:1038F000FF32CDE90523049307938DF853301A93D3
:103900002F46052217F8011B4F48FCF701FF049BC7
:10391000D0B9D90644BF20228DF853201A0744BFDE
:103920002B228DF853202A782A2A15D0079A2F4661
:1039300000200A25394611F8013B303B092B4DD9AF
:10394000B8B10FE02F46B8E73F4A801A0BFA00F0F3
:10395000184304903D46D3E7039A111D1268039162
:10396000002A01DB079204E0524243F0020307926F
:1039700004933B782E2B0CD17B782A2B33D1039BDD
:103980001A1D1B680392002BB8BF4FF0FF3302379C
:1039900005932E4D397803222846FCF7B9FE38B13D
:1039A0004023401B03FA00F0049B034301370493B8
:1039B000397827488DF8281006227E1CFCF7A8FECF
:1039C000002838D0234B13BB039B073323F0070396
:1039D00008330393099B4B4409936DE705FB0232BF
:1039E00001200F46A6E700230137059319460A2553
:1039F000384610F8012B303A092A03D9002BC8D0D9
:103A00000591C6E705FB012101230746F0E703AB5B
:103A100000932246104B04A94046AFF30080B0F15A
:103A2000FF3F8146D6D1A3895B063FF536AF0998A3
:103A30001DB0BDE8F08F03AB00932246064B04A9EE
:103A4000404600F081F8EAE7E03F0008E63F000862
:103A5000EA3F000800000000BD3700082DE9F047EC
:103A600091461F468A680B69DDF820809342B8BFF3
:103A70001346C9F8003091F8432006460C4612B1AF
:103A80000133C9F800302368990642BFD9F80030E5
:103A90000233C9F80030256815F0060507D104F196
:103AA000190AE368D9F800209B1AAB4228DC94F885
:103AB00043302268003318BF012392062DD404F14D
:103AC000430239463046C047013020D02368E568BC
:103AD000D9F8002003F00603042B08BFAD1AA36831
:103AE00022690CBF25EAE57500259342C4BF9B1AE5
:103AF000ED184FF000091A344D451AD1002008E0A6
:103B00000123524639463046C047013003D14FF0B9
:103B1000FF30BDE8F0870135C3E7E1185A1C3020BB
:103B200081F84300224494F8451082F84310023390
:103B3000C5E70123224639463046C0470130E6D06A
:103B400009F10109D8E700002DE9F04301F1430C28
:103B50000C46097E85B06E291746064698460C9A93
:103B600000F0B38022D8632936D00AD8002900F0AB
:103B7000B980582900F0838004F1420584F842108E
:103B800032E0642901D06929F6D12068136805065E
:103B900003F104012AD51B681160002B03DA2D22E2
:103BA0005B4284F843206F480A2239E0732900F011
:103BB0009D8008D86F2920D07029DDD1236843F07B
:103BC0002003236003E0752917D07829D4D1782306
:103BD00084F84530644855E01368191D1B6811606E
:103BE00004F1420584F8423001238CE01B68116027
:103BF00010F0400F18BF1BB2CFE713682568181DDF
:103C00001060280601D51B6802E06806FBD51B88FA
:103C100054486F2914BF0A220822002184F8431057
:103C20006568A560002DC0F29580216821F004012F
:103C30002160002B3DD1002D40F08E806546082A82
:103C40000BD12368DB0708D5236962689A42DEBF7F
:103C5000302305F8013C05F1FF35ACEB050323618A
:103C6000CDF800803B4603AA21463046FFF7F6FE1A
:103C700001304DD14FF0FF3005B0BDE8F083394839
:103C800084F84510136821681D1D1B6815600A061D
:103C90000BD5CA0744BF41F0200121601BB922683F
:103CA00022F0200222601022B7E74D0648BF9BB2E7
:103CB000EFE76546B3FBF2F102FB1133C35C05F895
:103CC000013D0B460029F5D1B9E713682568616904
:103CD000181D106028061B6801D5196002E06A06ED
:103CE000FBD51980002323616546B9E71368191DC8
:103CF00011601D68626800212846FCF709FD08B1C3
:103D0000401B606063682361002384F84330A7E7A9
:103D100023692A4639463046C0470130AAD0236875
:103D20009B0713D4E068039B9842B8BF1846A3E7EB
:103D300001234A4639463046C04701309AD0013502
:103D4000E368039A9B1AAB42F2DCEBE7002504F12F
:103D50001909F5E7002BACD1037884F8423004F15F
:103D600042056CE7F13F00080240000810B5431E11
:103D70000A44914200D110BD11F8014B03F8014FE4
:103D8000F7E7884210B501EB020307D8421E9942BB
:103D90000AD011F8014B02F8014FF8E78342F5D938
:103DA0008118D21AD34200D110BD13F8014D01F889
:103DB000014DF7E738B50546002945D051F8043CD8
:103DC0000C1F002BB8BFE41800F0D2F81F4A13688C
:103DD000104633B9636014602846BDE8384000F0EF
:103DE000C8B8A3420CD921686218934204BF1A686C
:103DF0005B68636004BF521822600460ECE71346FE
:103E00005A680AB1A242FAD919685818A0420BD1CF
:103E100020680144581882421960DDD11068526848
:103E20005A6001441960D7E702D90C232B60D3E70D
:103E3000206821188A4204BF11685268626004BF7A
:103E4000091821605C60C7E738BD00BF9C010020F5
:103E500070B5CD1C25F0030508350C2D38BF0C2599
:103E6000002D064601DBA94203D90C233360002054
:103E700070BD00F07DF8214A1468214691B9204CAC
:103E800023681BB9304600F063F8206029463046AD
:103E900000F05EF8431C24D10C233360304600F060
:103EA00068F8E4E70B685B1B18D40B2B0FD90B6089
:103EB000CD50CC18304600F05CF804F10B00231D07
:103EC00020F00700C31AD3D05A42E250D0E78C4208
:103ED0004B6816BF636013600C46EBE70C464968FD
:103EE000CCE7C41C24F00304A04205D0211A3046BC
:103EF00000F02EF80130CFD02560DBE79C010020D8
:103F0000A0010020F8B5074614460E4621B9114617
:103F1000BDE8F840FFF79CBF22B9FFF74BFF2546ED
:103F20002846F8BD00F026F8A0420FD221463846B8
:103F3000FFF78EFF05460028F2D031462246FFF7F4
:103F400015FF31463846FFF735FFE9E73546E7E725
:103F500038B5064C0023054608462360FFF7B6FA3D
:103F6000431C02D1236803B12B6038BD70040020CC
:103F70007047704751F8043C181F002BBCBF0B580A
:103F8000C0187047F8B500BFF8BC08BC9E46704723
:0C3F9000F8B500BFF8BC08BC9E467047A6
:103F9C0002030405060708090A0B0C0D0E0F10107E
:103FAC000102030405060708090A0B0C0D0E0F107D
:103FBC0000000000000000000102030406070809CD
:103FCC000000000001020304456E63313A202564B1
:103FDC00200D0A00232D302B2000686C4C006566E8
:103FEC00674546470030313233343536373839413E
:103FFC004243444546003031323334353637383954
:08400C00616263646566000057
:04401400B5010008EA
:04401800910100080A
:10401C00010000001000000000127A0010000020C7
:10402C000000000000000000000000000000000084
:10403C000000000000000000000000000000000074
:10404C000000000000000000000000000000000064
:10405C000000000000000000000000000000000054
:10406C000000000000000000000000000000000044
:10407C000000000000000000000000000000000034
:040000050800357149
:00000001FF
